:0200000007D027
:020001000638BF
:0200020004C137
:020003000708EC
:020004000A23CD
:0200050009A64A
:0200060007C031
:0200070008DE11
:020008000B4AA1
:020009000A28C3
:02000A0006D717
:02000B000622CB
:02000C000818D2
:02000D00079654
:02000E00049D4F
:02000F00045596
:02001000078067
:0200110008E104
:02001200074E97
:020013000716CE
:0200140009FEE3
:020015000BAE30
:0200160009518E
:0200170007449C
:0200180008845A
:02001900099745
:02001A000712CB
:02001B00045E81
:02001C00057865
:02001D0007D00A
:02001E000720B9
:02001F00056C6E
:0200200006B028
:020021000A775C
:020022000AA032
:02002300085281
:02002400085280
:020025000A9639
:020026000A16B8
:0200270006B021
:02002800056C65
:020029000720AE
:02002A0007D0FD
:02002B00053698
:02002C00045E70
:02002D000712B8
:02002E00099730
:02002F00088443
:02003000074483
:02003100095173
:020032000BAE13
:0200330009FEC4
:0200340006D8EC
:02003500074E74
:0200360008E1DF
:02003700078040
:0200380004556D
:02003900049D24
:02003A00079627
:02003B000818A3
:02003C0006229A
:02003D0006D7E4
:02003E000A288E
:02003F000B4A6A
:0200400008DED8
:0200410007C0F6
:0200420009A60D
:020043000A238E
:020044000708AB
:0200450004C1F4
:0200460006387A
:0200470007D0E0
:02004800063878
:0200490004C1F0
:02004A000708A5
:02004B000A2386
:02004C0009A603
:02004D0007C0EA
:02004E0008DECA
:02004F000B4A5A
:020050000A287C
:0200510006D7D0
:02005200062284
:0200530008188B
:0200540007960D
:02005500049D08
:0200560004554F
:02005700078020
:02005800090895
:02005900074E50
:02005A00071687
:02005B0009FE9C
:02005C000BAEE9
:02005D00095147
:02005E00074455
:02005F00088413
:020060000997FE
:02006100071284
:02006200045E3A
:0200630005781E
:0200640007D0C3
:02006500072072
:02006600056C27
:0200670006B0E1
:020068000A7715
:020069000AA0EB
:02006A0008523A
:02006B00085239
:02006C000A96F2
:02006D000A1671
:02006E0006B0DA
:02006F00056C1E
:02007000072067
:0200710007B2D4
:02007200053651
:02007300045E29
:02007400071271
:020075000997E9
:020076000884FC
:0200770007443C
:02007800099EDF
:020079000BAECC
:02007A0009FE7D
:02007B0006D8A5
:02007C00074E2D
:02007D0008E198
:02007E000780F9
:02007F00045526
:02008000049DDD
:020081000796E0
:0200820008185C
:02008300062253
:0200840006D79D
:020085000A2847
:020086000B4A23
:0200870008DE91
:0200880007BCB3
:0200890009A6C6
:02008A000A2347
:02008B00070864
:02008C0004C1AD
:02008D00063833
:02008E0007D099
:02008F00063831
:0200900004C1A9
:0200910007085E
:020092000A233F
:0200930009A6BC
:0200940007C0A3
:0200950008DE83
:020096000B4A13
:020097000A2835
:0200980006D789
:0200990006223D
:02009A00081844
:02009B000796C6
:02009C00049DC1
:02009D00045508
:02009E000780D9
:02009F0009084E
:0200A000074E09
:0200A10007193D
:0200A20009FE55
:0200A3000BAEA2
:0200A400095100
:0200A50007440E
:0200A600087AD6
:0200A7000997B7
:0200A80007143B
:0200A900045EF3
:0200AA000578D7
:0200AB0007D07C
:0200AC0007202B
:0200AD00056CE0
:0200AE00071039
:0200AF000A77CE
:0200B0000AA0A4
:0200B1000852F3
:0200B2000852F2
:0200B3000A96AB
:0200B4000A162A
:0200B50006B093
:0200B60005281B
:0200B700072020
:0200B80007B28D
:0200B90005360A
:0200BA00045EE2
:0200BB0007122A
:0200BC000997A2
:0200BD000884B5
:0200BE000744F5
:0200BF00099E98
:0200C0000BAE85
:0200C10009FE36
:0200C20006D85E
:0200C300074EE6
:0200C40008E151
:0200C5000780B2
:0200C6000455DF
:0200C700049D96
:0200C800079699
:0200C900081815
:0200CA0006220C
:0200CB0006D756
:0200CC000A2800
:0200CD000B4ADC
:0200CE0008E345
:0200CF0007BC6C
:0200D00009A67F
:0200D1000A2300
:0200D20007081D
:0200D30004C166
:0200D4000638EC
:0200D50007D052
:0200D6000640E2
:0200D70004C162
:0200D800070817
:0200D9000A23F8
:0200DA0009A675
:0200DB0007C05C
:0200DC0008DE3C
:0200DD000B4ACC
:0200DE000A28EE
:0200DF0006D742
:0200E0000622F6
:0200E1000818FD
:0200E20007967F
:0200E300049D7A
:0200E4000455C1
:0200E500078092
:0200E600090807
:0200E700074EC2
:0200E8000719F6
:0200E90009FE0E
:0200EA000BAE5B
:0200EB000956B4
:0200EC000744C7
:0200ED00087A8F
:0200EE00099770
:0200EF000714F4
:0200F000045EAC
:0200F100057890
:0200F20007D035
:0200F3000720E4
:0200F400056C99
:0200F5000710F2
:0200F6000A7787
:0200F7000AA05D
:0200F8000838C6
:0200F9000852AB
:0200FA000A9664
:0200FB000A16E3
:0200FC0006B04C
:0200FD000528D4
:0200FE000720D9
:0200FF0007B246
:020100000536C2
:02010100045E9A
:020102000712E2
:0201030009975A
:0201040008846D
:020105000748A9
:02010600099E50
:020107000BAE3D
:0201080009FEEE
:0201090006D816
:02010A00074E9E
:02010B0008E109
:02010C000730BA
:02010D00045597
:02010E00049D4E
:02010F00079651
:020110000818CD
:020111000622C4
:0201120006D70E
:020113000A28B8
:020114000B548A
:0201150008E3FD
:0201160007BC24
:0201170009A637
:020118000A23B8
:020119000708D5
:02011A0004C11E
:02011B000638A4
:02011C0007D00A
:02011D0006409A
:02011E0004C11A
:02011F000708CF
:020120000A23B0
:0201210009A62D
:0201220007C014
:0201230008DEF4
:020124000B4A84
:020125000A28A6
:0201260006D7FA
:020127000622AE
:020128000818B5
:02012900079637
:02012A00049D32
:02012B00045579
:02012C0007804A
:02012D000908BF
:02012E00074E7A
:02012F000719AE
:0201300009FEC6
:020131000BAE13
:0201320009566C
:0201330007447F
:02013400087A47
:02013500099728
:020136000714AC
:02013700045E64
:02013800057848
:0201390007D0ED
:02013A0007209C
:02013B00056C51
:02013C000710AA
:02013D000A773F
:02013E000AA015
:02013F0008387E
:02014000085263
:020141000A961C
:020142000A169B
:0201430006B004
:02014400051E96
:02014500072091
:0201460007B2FE
:0201470005367B
:02014800045E53
:0201490007713C
:02014A00099713
:02014B00088426
:02014C00074862
:02014D00099E09
:02014E000BAEF6
:02014F0009FEA7
:0201500006D8CF
:02015100074461
:0201520008E1C2
:02015300073073
:02015400045550
:02015500049D07
:0201560007960A
:02015700081886
:0201580006227D
:0201590006D7C7
:02015A000A2871
:02015B000B5443
:02015C0008E3B6
:02015D0007B7E2
:02015E0009A6F0
:02015F000A2371
:0201600007088E
:0201610004C1D7
:0201620006385D
:0201630007D0C3
:02016400064053
:0201650004C1D3
:02016600070888
:020167000A2369
:0201680009A6E6
:0201690007C0CD
:02016A0008DEAD
:02016B000B4A3D
:02016C000A285F
:02016D0006D7B3
:02016E00062267
:02016F0008186E
:020170000796F0
:02017100049DEB
:02017200045532
:02017300078003
:02017400090878
:02017500074E33
:02017600071967
:0201770009FE7F
:020178000BAECC
:02017900095625
:02017A00074438
:02017B00087A00
:02017C000997E1
:02017D00071465
:02017E00045E1D
:02017F00057801
:0201800007D0A6
:02018100072055
:02018200056C0A
:02018300071063
:020184000A77F8
:020185000AA0CE
:02018600083C33
:0201870008521C
:020188000A96D5
:020189000A1654
:02018A0006B0BD
:02018B00051E4F
:02018C0007204A
:02018D0007B2B7
:02018E00053634
:02018F00045E0C
:020190000771F5
:020191000997CC
:020192000884DF
:0201930007481B
:02019400099EC2
:020195000BAEAF
:0201960009FE60
:0201970006D888
:0201980007441A
:0201990008DA82
:02019A0007302C
:02019B00045509
:02019C00049DC0
:02019D000796C3
:02019E0008183F
:02019F00065602
:0201A00006DA7D
:0201A1000A282A
:0201A2000B54FC
:0201A30008E36F
:0201A40007B79B
:0201A500099CB3
:0201A6000A232A
:0201A70006A4AC
:0201A80004B899
:0201A900063816
:0201AA0007D07C
:0201AB0006400C
:0201AC0004C18C
:0201AD00070841
:0201AE000A2322
:0201AF0009A69F
:0201B00007C086
:0201B10008DE66
:0201B2000B4AF6
:0201B3000A2818
:0201B40006D76C
:0201B500062220
:0201B600080837
:0201B7000796A9
:0201B800049DA4
:0201B9000455EB
:0201BA000780BC
:0201BB00090831
:0201BC00074EEC
:0201BD00071920
:0201BE0009FE38
:0201BF000BAE85
:0201C0000956DE
:0201C1000744F1
:0201C200087AB9
:0201C30009979A
:0201C40007141E
:0201C500045ED6
:0201C6000578BA
:0201C70007D05F
:0201C80007200E
:0201C900056CC3
:0201CA0007101C
:0201CB000A77B1
:0201CC000AA087
:0201CD00083CEC
:0201CE000852D5
:0201CF000A968E
:0201D0000A160D
:0201D10006B076
:0201D200051E08
:0201D300072003
:0201D40007B270
:0201D5000536ED
:0201D600045EC5
:0201D7000771AE
:0201D800099785
:0201D900088498
:0201DA000748D4
:0201DB00099E7B
:0201DC000BAE68
:0201DD0009A176
:0201DE0006D841
:0201DF000744D3
:0201E00008DA3B
:0201E1000730E5
:0201E2000455C2
:0201E300049D79
:0201E40007D042
:0201E5000818F8
:0201E6000656BB
:0201E70006DA36
:0201E8000A28E3
:0201E9000B54B5
:0201EA0008E328
:0201EB0007B754
:0201EC00099C6C
:0201ED000A23E3
:0201EE0006A465
:0201EF0004B852
:0201F0000638CF
:0201F10007D035
:0201F2000640C5
:0201F30004C145
:0201F4000708FA
:0201F5000A23DB
:0201F60009A658
:0201F70007C03F
:0201F80008DE1F
:0201F9000B4AAF
:0201FA000A28D1
:0201FB0006D725
:0201FC000622D9
:0201FD000808F0
:0201FE00079662
:0201FF00049D5D
:020200000455A3
:02020100078074
:020202000908E9
:02020300074EA4
:020204000719D8
:0202050009FEF0
:020206000BAE3D
:02020700095696
:020208000744A9
:02020900087A71
:02020A00099752
:02020B000714D6
:02020C00045E8E
:02020D00057872
:02020E0007D017
:02020F000720C6
:02021000056C7B
:020211000710D4
:020212000A7769
:020213000AA03F
:02021400083CA4
:0202150008528D
:020216000A9646
:020217000A16C5
:0202180006B02E
:02021900051EC0
:02021A000720BB
:02021B0007B228
:02021C000536A5
:02021D00045E7D
:02021E00077166
:02021F0009973D
:02022000088450
:02022100076A6A
:02022200099E33
:020223000BAE20
:0202240009A12E
:0202250006D8F9
:0202260007448B
:0202270008DAF3
:0202280007309D
:0202290004557A
:02022A0004F8D6
:02022B0007D0FA
:02022C000818B0
:02022D00065673
:02022E0006DAEE
:02022F000A8C37
:020230000B546D
:0202310008E3E0
:0202320007B70C
:02023300099C24
:0202340009CEF1
:0202350006A41D
:0202360004B80A
:02023700063887
:0202380007D0ED
:02023900060EAF
:02023A0004C1FD
:02023B000708B2
:02023C000A2393
:02023D0009A610
:02023E0007C0F7
:02023F0008DED7
:020240000B4A67
:020241000A2889
:02024200068430
:02024300062291
:020244000808A8
:0202450007961A
:02024600049D15
:0202470004555C
:0202480007802D
:020249000908A2
:02024A00074E5D
:02024B00071991
:02024C0009FEA9
:02024D000BAEF6
:02024E0009564F
:02024F00074462
:02025000087A2A
:0202510009970B
:0202520007148F
:02025300045E47
:0202540005782B
:0202550007D0D0
:02025600072877
:02025700056C34
:0202580007108D
:020259000A7722
:02025A000AA0F8
:02025B00083C5D
:02025C00085246
:02025D000A96FF
:02025E000A167E
:02025F0006B0E7
:02026000051E79
:02026100072074
:0202620007B2E1
:0202630005365E
:02026400045E36
:0202650007711F
:0202660009D8B5
:02026700088409
:02026800076A23
:02026900099EEC
:02026A000BAED9
:02026B0009A1E7
:02026C0006D8B2
:02026D00074444
:02026E0008DAAC
:02026F00073056
:02027000045533
:0202710004F097
:0202720007D0B3
:02027300081869
:0202740006562C
:0202750006DAA7
:020276000A8CF0
:020277000B5426
:0202780008E399
:0202790007B7C5
:02027A00099CDD
:02027B0009CEAA
:02027C0006A4D6
:02027D0004B8C3
:02027E00063840
:02027F0007D1A5
:02028000060E68
:0202810004C1B6
:0202820007086B
:020283000A234C
:0202840009A6C9
:0202850007C0B0
:02028600091459
:020287000B4A20
:020288000A2842
:020289000684E9
:02028A0006224A
:02028B00080861
:02028C000796D3
:02028D00049DCE
:02028E00045515
:02028F000780E6
:0202900009085B
:02029100074E16
:0202920007194A
:0202930009FE62
:020294000BAEAF
:02029500095608
:0202960007441B
:02029700087AE3
:020298000997C4
:02029900071448
:02029A00045E00
:02029B000578E4
:02029C0007D089
:02029D00072830
:02029E00056CED
:02029F00071046
:0202A0000A77DB
:0202A1000AA0B1
:0202A200083C16
:0202A3000852FF
:0202A4000A96B8
:0202A5000A1637
:0202A60006B0A0
:0202A700051E32
:0202A800071835
:0202A90007B29A
:0202AA00053617
:0202AB00045EEF
:0202AC000771D8
:0202AD0009D86E
:0202AE000884C2
:0202AF00076ADC
:0202B000099EA5
:0202B1000BAE92
:0202B20009A1A0
:0202B30006D86B
:0202B4000744FD
:0202B50008DA65
:0202B60007300F
:0202B7000455EC
:0202B80004F050
:0202B90007D06C
:0202BA00081822
:0202BB000656E5
:0202BC00072C0D
:0202BD000A8CA9
:0202BE000B54DF
:0202BF0008E352
:0202C00007B77E
:0202C100099C96
:0202C20009CE63
:0202C30006A48F
:0202C4000460D4
:0202C5000638F9
:0202C60007D15E
:0202C700060E21
:0202C80004C16F
:0202C900070824
:0202CA000A2305
:0202CB0009A682
:0202CC0007C069
:0202CD00091412
:0202CE000B4AD9
:0202CF000A28FB
:0202D0000684A2
:0202D100062203
:0202D20008081A
:0202D30007968C
:0202D400049D87
:0202D5000455CE
:0202D60007809F
:0202D700090814
:0202D800074ECF
:0202D900071903
:0202DA0009FE1B
:0202DB000BAE68
:0202DC000956C1
:0202DD000744D4
:0202DE00087A9C
:0202DF0009977D
:0202E000071401
:0202E100045EB9
:0202E20005789D
:0202E30007D042
:0202E4000728E9
:0202E500056CA6
:0202E6000710FF
:0202E7000A7794
:0202E8000AA06A
:0202E900083CCF
:0202EA000852B8
:0202EB000A9671
:0202EC000A16F0
:0202ED0006B059
:0202EE00051EEB
:0202EF000718EE
:0202F00007B253
:0202F1000536D0
:0202F200045EA8
:0202F300077191
:0202F40009E01F
:0202F50008847B
:0202F600076A95
:0202F700099E5E
:0202F8000BAE4B
:0202F90009A159
:0202FA0006D824
:0202FB000744B6
:0202FC0008DA1E
:0202FD000730C8
:0202FE000455A5
:0202FF0004F009
:0203000007D024
:020301000818DA
:0203020006569D
:02030300072CC5
:020304000A8C61
:020305000B5497
:0203060008AC41
:0203070007B736
:02030800099C4E
:0203090009CE1B
:02030A0006A447
:02030B0004608C
:02030C000638B1
:02030D0007D116
:02030E00060ED9
:02030F0004C127
:020310000708DC
:020311000A23BD
:0203120009A63A
:0203130007C021
:020314000914CA
:020315000B4A91
:020316000A28B3
:0203170006845A
:020318000622BB
:020319000808D2
:02031A00075C7E
:02031B00049D3F
:02031C00045586
:02031D00077F58
:02031E000908CC
:02031F00074E87
:020320000719BB
:0203210009FED3
:020322000BAE20
:02032300095679
:0203240007448C
:02032500087A54
:02032600099735
:020327000714B9
:02032800045E71
:02032900057855
:02032A0007D0FA
:02032B000728A1
:02032C00056C5E
:02032D000710B7
:02032E000A774C
:02032F000AA022
:02033000083C87
:02033100085270
:020332000A9629
:020333000A16A8
:0203340006B011
:02033500051EA3
:020336000718A6
:0203370007B20B
:02033800053688
:02033900045E60
:02033A00077149
:02033B0009E0D7
:02033C00088433
:02033D00076A4D
:02033E00099E16
:02033F000BAE03
:0203400009A111
:0203410006D8DC
:0203420007446E
:0203430008DAD6
:02034400073080
:0203450004555D
:0203460004F0C1
:0203470007D0DD
:0203480008208B
:02034900065656
:02034A00072C7E
:02034B000A8C1A
:02034C000B5450
:02034D0008ACFA
:02034E0007B7EF
:02034F00099C07
:0203500009CED4
:0203510006A400
:02035200046045
:0203530006386A
:0203540007D1CF
:02035500060E92
:0203560004C1E0
:02035700076C31
:020358000A2376
:0203590009A6F3
:02035A0007C0DA
:02035B00091483
:02035C000B4A4A
:02035D000A286C
:02035E00068413
:02035F00062274
:0203600008088B
:02036100075E35
:02036200049DF8
:0203630004553F
:02036400077F11
:02036500090885
:02036600074E40
:02036700071974
:0203680009FE8C
:020369000BAED9
:02036A00095632
:02036B00072168
:02036C00087A0D
:02036D000990F5
:02036E00071472
:02036F00045E2A
:0203700005780E
:0203710007D0B3
:0203720007285A
:02037300056C17
:02037400071070
:020375000A7705
:020376000AA0DB
:02037700083C40
:02037800085229
:020379000A96E2
:02037A000A1661
:02037B0006B0CA
:02037C00051E5C
:02037D0007185F
:02037E0007B2C4
:02037F00053641
:02038000045E19
:02038100077102
:0203820009E090
:020383000884EC
:02038400076A06
:02038500099ECF
:020386000BAEBC
:0203870009A1CA
:0203880006D895
:02038900074427
:02038A0008DA8F
:02038B00073039
:02038C00045516
:02038D0004F07A
:02038E0007D096
:02038F00082044
:0203900006560F
:02039100072C37
:020392000A8CD3
:020393000B5409
:0203940008ACB3
:0203950007B7A8
:02039600099CC0
:0203970009CE8D
:0203980006A4B9
:020399000460FE
:02039A00063823
:02039B0007D188
:02039C00060E4B
:02039D0004C199
:02039E00076CEA
:02039F000A2A28
:0203A00009A6AC
:0203A10007C093
:0203A20009143C
:0203A3000B4A03
:0203A4000A2825
:0203A5000684CC
:0203A600061837
:0203A700080844
:0203A800075EEE
:0203A900049DB1
:0203AA000455F8
:0203AB00077FCA
:0203AC00091036
:0203AD000764E3
:0203AE0007192D
:0203AF0009FE45
:0203B0000BAE92
:0203B1000956EB
:0203B200072121
:0203B300087AC6
:0203B4000990AE
:0203B50006B68A
:0203B600045EE3
:0203B7000578C7
:0203B80007D06C
:0203B900072813
:0203BA00056CD0
:0203BB00071029
:0203BC000A77BE
:0203BD000AA094
:0203BE00083CF9
:0203BF00084DE7
:0203C0000A969B
:0203C1000A161A
:0203C20006B083
:0203C300051E15
:0203C400072F01
:0203C50007B27D
:0203C6000536FA
:0203C700045ED2
:0203C8000771BB
:0203C90009E049
:0203CA000884A5
:0203CB00076ABF
:0203CC00099E88
:0203CD000BAE75
:0203CE0009A183
:0203CF0006D84E
:0203D0000744E0
:0203D10008DA48
:0203D2000730F2
:0203D3000455CF
:0203D40004F033
:0203D50007D04F
:0203D6000820FD
:0203D7000656C8
:0203D800072CF0
:0203D9000A8C8C
:0203DA000B54C2
:0203DB0008AC6C
:0203DC0007B761
:0203DD00099C79
:0203DE0009CE46
:0203DF0006A472
:0203E0000460B7
:0203E1000638DC
:0203E20007D141
:0203E300060E04
:0203E40004C152
:0203E500076CA3
:0203E6000A2AE1
:0203E70009B05B
:0203E80007C448
:0203E9000914F5
:0203EA000B4ABC
:0203EB0009C443
:0203EC00068485
:0203ED000618F0
:0203EE000808FD
:0203EF00075EA7
:0203F000049D6A
:0203F1000455B1
:0203F20007D032
:0203F3000910EF
:0203F40007649C
:0203F5000719E6
:0203F60009FEFE
:0203F7000BAE4B
:0203F8000956A4
:0203F9000721DA
:0203FA00087A7F
:0203FB00099067
:0203FC0006B643
:0203FD00045E9C
:0203FE00057880
:0203FF0007D025
:00000001FF
