:02000000048278
:02000100054EAA
:02000200048276
:02000300043CBB
:02000400055C99
:020005000543B1
:02000600045E96
:020007000531C1
:0200080005D61B
:0200090004B43D
:02000A0004D719
:02000B00062AC3
:02000C00056687
:02000D0004AB42
:02000E0005EEFD
:02000F000623C6
:0200100004DA10
:02001100058662
:0200120006D115
:02001300059E48
:02001400053DA8
:0200150006D112
:0200160006766C
:020017000517CB
:02001800065F81
:02001900076A74
:02001A0005DB04
:02001B0005FEE0
:02001C0007BA21
:02001D0006CB10
:02001E00056B70
:02001F00074E8A
:0200200007C512
:020021000611C6
:0200220006A234
:0200230008953E
:0200240006DDF7
:0200250005EAEA
:0200260008438D
:020027000812BD
:02002800060BC5
:0200290007AB23
:02002A000917B4
:02002B000703C9
:02002C0006BE0E
:02002D00094D7B
:02002E00083296
:02002F00063198
:0200300008DDE9
:0200310009B80C
:0200320006A521
:0200330007D2F2
:020034000A3A86
:0200350007FDC5
:0200360006DAE8
:0200370009C0FE
:0200380009E2DB
:0200390006EDD2
:02003A0008F1CB
:02003B000AE5D4
:02003C0007E2D9
:02003D0007F7C3
:02003E000B6B4A
:02003F0009E7CF
:02004000075364
:020041000A5F54
:020042000B753C
:0200430007EBC9
:020044000900B1
:020045000C4F5E
:0200460009A807
:0200470007F5BB
:020048000BD4D7
:020049000B6D3D
:02004A0007CCE1
:02004B000A7435
:02004C000D02A3
:02004D00095E4A
:02004E0008FEAA
:02004F000D4F53
:020050000B554E
:0200510007FEA8
:020052000C663A
:020053000D524C
:0200540008CCD6
:020055000AC0DF
:020056000E5149
:020057000ACCD1
:02005800092B72
:020059000E1087
:02005A000D2473
:02005B0008D4C7
:02005C000C5442
:02005D000EC4CF
:02005E000A3A5C
:02005F000A3560
:020060000F5936
:020061000CC4CD
:02006200094A49
:020063000EA0ED
:020064000F0289
:02006500098F01
:020066000C2F5D
:02006700106D1A
:020068000BFA91
:020069000A4E3D
:02006A000F93F2
:02006B000EA9DC
:02006C00097E0B
:02006D000D85FF
:02006E0010C0C0
:02006F000B3450
:020070000B740F
:020071001195E7
:020072000D750A
:020073000A0879
:02007400101C5E
:02007500107108
:020076000ADF9F
:020077000DBBBF
:02007800126212
:020079000CA7D2
:02007A000B7009
:02007B00124D24
:02007C00101A58
:02007D000ABABD
:02007E0010363A
:02007F0012D994
:020080000BDF94
:020081000DC1AF
:0200820013B8B1
:020083000F3735
:020084000BF877
:0200850012ADBA
:0200860011E186
:020087000B78F4
:02008800103A2C
:0200890014223F
:02008A000DF374
:02008B000DBAAC
:02008C001476E8
:02008D0010D889
:02008E000C1351
:02008F0012A5B8
:0200900013E477
:020091000D233D
:0200920010401C
:02009300154313
:020094000F8DCE
:020095000D4814
:0200960014BF95
:0200970012EC69
:020098000CC496
:0200990011D57F
:02009A0016133B
:02009B000DFC5A
:02009C000F56FD
:02009D0016A3A8
:02009E0011B39C
:02009F000D7FD3
:0200A00014C486
:0200A10014DB6E
:0200A2000DAEA1
:0200A300111A30
:0200A400175DE6
:0200A500107BCE
:0200A6000EC288
:0200A700171A26
:0200A800142D15
:0200A9000D72D6
:0200AA0014B68A
:0200AB0016EE4F
:0200AC000EF252
:0200AD001154EC
:0200AE0018BB7D
:0200AF001271CC
:0200B0000ED66A
:0200B10016C770
:0200B200163303
:0200B3000E320B
:0200B40013B186
:0200B50019151B
:0200B6001073C5
:0200B70010D562
:0200B800193EEF
:0200B900149B96
:0200BA000F2015
:0200BB0016E746
:0200BC001876B4
:0200BD000F6FC3
:0200BE00138DA0
:0200BF001AC95C
:0200C000127CB0
:0200C10010BC71
:0200C2001942E1
:0200C30017160E
:0200C4000F70BB
:0200C50016BE65
:0200C60019F12E
:0200C7001162C4
:0200C8001335EE
:0200C9001B0911
:0200CA001537E8
:0200CB001049DA
:0200CC001944D5
:0200CD0019A276
:0200CE0010DC44
:0200CF0015E634
:0200D0001BCF44
:0200D100138397
:0200D200118C8F
:0200D3001BF719
:0200D40017EC27
:0200D5001069B0
:0200D60019957A
:0200D7001B7A92
:0200D800115ABB
:0200D900155AB6
:0200DA001C7197
:0200DB00153BD3
:0200DC0011FC15
:0200DD001C0203
:0200DE001966A1
:0200DF001114FA
:0200E00017CC3B
:0200E1001CDE23
:0200E2001365A4
:0200E30013BC4C
:0200E4001E24D8
:0200E500178A78
:0200E600111BEC
:0200E7001B7A82
:0200E8001BF10A
:0200E9001208FB
:0200EA001750AD
:0200EB001E7184
:0200EC0014D12D
:0200ED001324DA
:0200EE001D9C57
:0200EF001A0EE7
:0200F00011E01D
:0200F1001AB83B
:0200F2001DC12E
:0200F300137781
:0200F400162ACA
:0200F5001F22C8
:0200F60017DE13
:0200F70012F500
:0200F8001D5099
:0200F9001C8861
:0200FA0012737F
:0200FB00196189
:0200FC001F36AD
:0200FD00157973
:0200FE00159358
:0200FF001FDA06
:0201000019BD27
:0201010012A149
:020102001CD807
:020103001E5B81
:020104001440A5
:02010500193BA4
:0201060020CE09
:0201070016E3FD
:0201080014CE13
:020109001F7B5A
:02010A001BA533
:02010B00134E91
:02010C001C478E
:02010D001FAD24
:02010E0014A932
:02010F001814C2
:0201100020EAE3
:02011100194390
:0201120014894E
:020113001F6368
:020114001E1DAE
:0201150013E9EC
:020116001B3E8E
:02011700219332
:0201180016A12E
:0201190017A12C
:02011A0021DEE4
:02011B001B5275
:02011C0014AA23
:02011D001E8A38
:02011E0020358A
:02011F001512B7
:020120001A655E
:02012100224F6B
:02012200188043
:0201230015CFF6
:0201240021E3D5
:020125001DA219
:0201260014556E
:020127001E09AF
:0201280021169E
:0201290015C2FD
:02012A001911A9
:02012B00225E52
:02012C001ABEF9
:02012D0015803B
:02012E0020FAB5
:02012F001FD7D8
:0201300014ECCD
:020131001CBBF5
:02013200233870
:02013300177E35
:02013400187F32
:0201350022FCAA
:020136001BF3B9
:0201370015DFD2
:020138001FFEA8
:02013900216C37
:02013A00162A83
:02013B001B03A4
:02013C00234B53
:02013D00191295
:02013E0016F0B9
:02013F0022FD9F
:020140001E3B64
:0201410015584F
:020142001EBBE2
:02014300222474
:02014400175B47
:020145001A6737
:0201460023BCD8
:020147001B8417
:02014800164659
:0201490021C5CE
:02014A00201F74
:02014B0015BFDE
:02014C001DC3D1
:02014D00239AF3
:02014E00193363
:02014F00187620
:02015000238CFE
:020151001D2F60
:0201520015B1E5
:02015300218AFF
:02015400220C7B
:020155001698FA
:020156001C0C7F
:0201570024651D
:020158001A2A61
:02015900182666
:02015A0024007F
:02015B001FA7DC
:02015C0015EAA2
:02015D001EF290
:02015E0023700C
:02015F00183254
:020160001A681B
:0201610024F385
:020162001C96E9
:0201630016C1C3
:02016400226C0B
:0201650020EE8A
:0201660016532E
:020167001D81F8
:0201680024D39E
:02016900193744
:02016A0018ADCE
:02016B002498D6
:02016C001E6C07
:02016D0016A0DA
:02016E0020F37C
:02016F002395D6
:0201700016E394
:020171001B531E
:0201720024E186
:020173001B442B
:020174001793DF
:020175002385E0
:02017600206EF9
:0201770015F27F
:020178001EB7B0
:0201790024144C
:02017A001881EA
:02017B001971F8
:02017C0024DE7F
:02017D001D0C57
:02017E0015E08A
:02017F0021F766
:0201800021F765
:0201810016D195
:020182001D2F2F
:02018300252233
:020184001A0B54
:02018500177BE6
:0201860024183B
:020187001F3324
:0201880015F66A
:020189001FF95C
:02018A002377D9
:02018B00172635
:02018C001A74E3
:02018D00250F3C
:02018E001BE56F
:02018F00171344
:0201900022D17A
:0201910020FD4F
:02019200157CDA
:020193001E014B
:02019400247ACB
:0201950018D779
:0201960018A5AA
:0201970024A89A
:020198001D55F3
:0201990015E56A
:02019A00218DB5
:02019B00224AF6
:02019C0016A1AA
:02019D001BAE97
:02019E00251129
:02019F0019D76E
:0201A000176FD7
:0201A10023C376
:0201A200201B20
:0201A3001575D0
:0201A4001F9AA0
:0201A50022DF57
:0201A6001743FD
:0201A7001A5FDD
:0201A8002444ED
:0201A9001C2216
:0201AA001656E7
:0201AB00217AB7
:0201AC0020B67B
:0201AD00159AA1
:0201AE001CCD66
:0201AF00249397
:0201B00018AC89
:0201B100183400
:0201B200236ABE
:0201B3001D31FC
:0201B400150B29
:0201B50020E741
:0201B600219096
:0201B70016042C
:0201B8001B3EEC
:0201B90024130D
:0201BA001975B5
:0201BB001737F4
:0201BC00226AB5
:0201BD001E7CA6
:0201BE00152FFB
:0201BF001E1F01
:0201C000221407
:0201C10017A085
:0201C2001932F0
:0201C300230F08
:0201C4001B52CC
:0201C500151211
:0201C60020B760
:0201C700202FE7
:0201C8001566BA
:0201C9001BED2C
:0201CA0023040C
:0201CB001751CA
:0201CC00169C7F
:0201CD0022F519
:0201CE001BF123
:0201CF0014A971
:0201D0001F838B
:0201D1002025E7
:0201D2001545D1
:0201D3001A12FE
:0201D40022DB2C
:0201D500185BB5
:0201D6001537DB
:0201D700214CB9
:0201D8001D6A9E
:0201D90013BA57
:0201DA001D2BDB
:0201DB002156AB
:0201DC0015F517
:0201DD00180AFE
:0201DE0021E618
:0201DF0019A95C
:0201E000145FAA
:0201E1001F6994
:0201E2001F05F7
:0201E30013C047
:0201E40019C838
:0201E50021B344
:0201E60015F60C
:0201E700164EB2
:0201E80020B83D
:0201E9001BC534
:0201EA00136A96
:0201EB001CDE18
:0201EC001F787A
:0201ED001427D5
:0201EE001818DF
:0201EF0020D717
:0201F00017AF47
:0201F1001415E3
:0201F2001F38B4
:0201F3001C07E7
:0201F400130DE9
:0201F5001B49A4
:0201F6001F697F
:0201F700149E54
:0201F80016C52A
:0201F9001F7471
:0201FA00194AA0
:0201FB001323CC
:0201FC001D9450
:0201FD001C7173
:0201FE0012D11C
:0201FF0018D412
:020200001FA13C
:020201001545A1
:0202020014BA2C
:020203001F05D5
:02020400195788
:02020500125590
:020206001B6675
:020207001D36A2
:0202080012CF13
:0202090016A538
:02020A001E1FB5
:02020B0015D606
:02020C00133E9F
:02020D001D31A1
:02020E001A2EA6
:02020F0011E0FC
:02021000192CA7
:020211001CDDF2
:02021200138E49
:0202130014A233
:020214001DE9E2
:020215001714BC
:02021600118D48
:020217001A6764
:020218001B5178
:0202190011785A
:02021A00166A62
:02021B001D22A2
:02021C00143795
:02021D00126A63
:02021E001C09B9
:02021F00180CB9
:0202200010F1DB
:0202210018A91A
:020222001B447B
:02022300114D7B
:020224001407BD
:020225001CC4F7
:0202260014DEE4
:0202270010E5E0
:020228001A4179
:02022900183E7D
:02022A00102A98
:02022B0016C9F2
:02022C001ACDE9
:02022D00123E7F
:02022E00121D9F
:02022F001AF5BE
:0202300014EDCB
:020231001019A2
:020232001808AA
:02023300191898
:020234001009AF
:0202350013FCB8
:0202360019B1FC
:0202370012A80B
:0202380010A014
:0202390019C3E7
:02023A0015A805
:02023B000EF2C1
:02023C0015AA01
:02023D0018FCAB
:02023E000FBEF1
:02023F00124863
:0202400019EAB9
:02024100128425
:020242000F6249
:0202430017ADF5
:0202440016366C
:020245000E8326
:02024600146240
:02024700181F7E
:020248000FF5B0
:0202490010891A
:02024A00182872
:02024B00131E80
:02024C000E3E64
:02024D0015A6F4
:02024E0015F6A3
:02024F000DEEB2
:02025000122F6B
:02025100176A2A
:02025200104F4B
:020253000EE4B7
:02025400163B57
:0202550013484C
:020256000D8811
:0202570013CBC7
:020258001591FE
:020259000E583D
:02025A000FFD96
:02025B00165B30
:02025C00105937
:02025D000DE5AD
:02025E0014ED9D
:02025F00132B5F
:020260000CCBC5
:0202610011DAB0
:0202620014D5B1
:020263000E2467
:020264000EDBAF
:0202650015235F
:02026600103C4A
:020267000CA7E2
:0202680013067B
:0202690013235D
:02026A000C6323
:02026B00101F62
:02026C00142656
:02026D000E136E
:02026E000D3948
:02026F001391E9
:02027000107606
:020271000BDFA1
:02027200114B2E
:020273001287F0
:020274000BF984
:020275000E81F8
:020276001374FF
:020277000DD5A3
:020278000C1761
:0202790011E68C
:02027A0010185A
:02027B000B3E38
:02027C000FBEB3
:02027D001199D5
:02027E000BC6AD
:02027F000CE190
:0202800011B8B3
:020281000DE08E
:020282000AE48C
:02028300106207
:020284000FC7A2
:020285000A83EA
:020286000DE980
:02028700111F45
:020288000BA2C7
:020289000B96D2
:02028A001096CC
:02028B000D73F1
:02028C000A0E58
:02028D000ED091
:02028E000F88D7
:02028F000A2E35
:020290000C510F
:020291000FEC70
:020292000B65FA
:020293000A6FF0
:020294000F1A3F
:020295000D62F8
:020296000990CD
:020297000D2533
:020298000E98BE
:0202990009C595
:02029A000B094E
:02029B000ED281
:02029C000B7ED7
:02029D0009282E
:02029E000D58F9
:02029F000CDE73
:0202A00008F262
:0202A1000B9BB5
:0202A2000DC588
:0202A30009A0B0
:0202A4000982CD
:0202A5000D9BAF
:0202A6000B0942
:0202A7000869E4
:0202A8000C3612
:0202A9000C4007
:0202AA00085AF0
:0202AB000A48FF
:0202AC000CC57F
:0202AD00094303
:0202AE00089FA7
:0202AF000C4001
:0202B0000A8BB7
:0202B10007A4A0
:0202B2000ADB65
:0202B3000BCF6F
:0202B40007DB66
:0202B50008E956
:0202B6000BA398
:0202B70008E558
:0202B80007A29B
:0202B9000AEE4B
:0202BA000A0C2C
:0202BB00071327
:0202BC00094CEB
:0202BD000AEC49
:0202BE000791A6
:0202BF0007C373
:0202C0000AC76B
:0202C1000891A2
:0202C20006999B
:0202C300099D93
:0202C400099897
:0202C50006949D
:0202C600081A14
:0202C70009D359
:0202C800072409
:0202C90006B677
:0202CA000973B6
:0202CB00082504
:0202CC0005F536
:0202CD00083FE8
:0202CE0008DF47
:0202CF00061413
:0202D00006E83E
:0202D10009140E
:0202D20006D450
:0202D30005CB59
:0202D4000858C8
:0202D50007BA66
:0202D6000565BC
:0202D700072AF4
:0202D8000837E5
:0202D900059D81
:0202DA0005F429
:0202DB00080514
:0202DC00068C8E
:0202DD00051208
:0202DE00073ED9
:0202DF00071600
:0202E00004E830
:0202E100060A0B
:0202E200078390
:0202E3000526EE
:0202E4000515FE
:0202E500070010
:0202E60005EB26
:0202E70004828F
:0202E800063DD1
:0202E900065CB1
:0202EA0004719D
:0202EB00052AE2
:0202EC0006808A
:0202ED0004D338
:0202EE00044AC0
:0202EF000614F3
:0202F000056B9C
:0202F10003E523
:0202F200053BCA
:0202F30005D034
:0202F40003FE07
:0202F5000455AE
:0202F60005B051
:0202F7000456AB
:0202F80003976A
:0202F9000528D6
:0202FA0004E11D
:0202FB00036896
:0202FC00045E9E
:0202FD00050FEB
:0202FE00038C6F
:0202FF00039A60
:0203000004DA1D
:020301000401F5
:020302000312E4
:020303000451A3
:020304000443B0
:0203050002FDF7
:0203060003A74B
:02030700045D93
:02030800031BD5
:0203090002FDF3
:02030A000415D8
:02030B00037D70
:02030C0002AC41
:02030D00038B60
:02030E00039D4D
:02030F00029D4D
:0203100002E801
:0203110003A740
:0203120002C423
:02031300027175
:02031400034F95
:0203150002FBE9
:02031600022EB5
:0203170002EBF7
:02031800030ED2
:020319000236AA
:02031A00025D82
:02031B0002F4EA
:02031C00025E7F
:02031D0001F5E8
:02031E0002B526
:02031F0002805A
:0203200001C812
:02032100024593
:02032200029047
:0203230001DCFB
:0203240001DAFC
:0203250002676D
:0203260001EEE6
:0203270001943F
:020328000225AC
:020329000206CA
:02032A0001765A
:02032B0001BA15
:02032C000205C8
:02032D00017C51
:02032E00016E5E
:02032F0001DCEF
:02033000018D3D
:02033100013990
:02033200019434
:0203330001992E
:0203340001289E
:02033500014E77
:02033600018B39
:02033700012B98
:020338000110B2
:0203390001645D
:02033A0001368A
:02033B0000EBD5
:02033C00012896
:02033D0001328B
:02033E0000E0DD
:02033F0000EECE
:02034000012298
:0203410000E0DA
:0203420000C4F5
:0203430000F7C1
:0203440000E6D1
:0203450000A90D
:0203460000D2E3
:0203470000D9DB
:0203480000A211
:0203490000A50D
:02034A0000C8E9
:02034B00009F11
:02034C0000852A
:02034D0000A806
:02034E00009914
:02034F0000723A
:02035000008526
:02035100008E1C
:02035200006B3E
:02035300006741
:02035400007C2B
:0203550000673F
:02035600005154
:02035700006440
:02035800005D46
:0203590000455D
:02035A00004B56
:02035B0000544C
:02035C00003E61
:02035D00003A64
:02035E00004459
:02035F00003963
:02036000002B70
:02036100003367
:02036200003168
:02036300002276
:02036400002473
:0203650000276F
:02036600001D78
:0203670000187C
:02036800001D76
:0203690000177B
:02036A00001081
:02036B0000137D
:02036C0000117E
:02036D00000C82
:02036E00000B82
:02036F00000B81
:02037000000784
:02037100000783
:02037200000683
:02037300000484
:02037400000384
:02037500000284
:02037600000283
:02037700000183
:02037800000083
:02037900000082
:02037A00000081
:02037B00000080
:02037C0000007F
:02037D0000007E
:02037E0000007D
:02037F0000007C
:02038000000279
:02038100000278
:02038200000277
:02038300000375
:02038400000473
:02038500000670
:0203860000086D
:0203870000076D
:0203880000096A
:02038900000D65
:02038A00000E63
:02038B00000E62
:02038C0000105F
:02038D0000145A
:02038E00001459
:02038F00001953
:02039000001D4E
:0203910000204A
:02039200001D4C
:02039300002741
:02039400002A3D
:0203950000283E
:02039600002B3A
:0203970000392B
:0203980000382B
:0203990000372B
:02039A0000431E
:02039B00004B15
:02039C0000421D
:02039D00004915
:02039E00005B02
:02039F00005606
:0203A000005209
:0203A1000065F5
:0203A200006FEA
:0203A300005FF9
:0203A4000072E5
:0203A5000080D6
:0203A600007BDA
:0203A7000074E0
:0203A8000092C1
:0203A9000099B9
:0203AA000086CB
:0203AB00009BB5
:0203AC0000B699
:0203AD000099B5
:0203AE0000A5A8
:0203AF0000CB81
:0203B00000C685
:0203B10000B694
:0203B20000D970
:0203B30000E563
:0203B40000CD7A
:0203B50000CF77
:0203B60001063E
:0203B70000FA4A
:0203B80000DF64
:0203B900010D34
:0203BA0001241C
:0203BB0000F947
:0203BC00010B33
:0203BD000147F6
:0203BE00012A12
:0203BF00011E1D
:0203C000015FDB
:0203C1000160D9
:0203C200013305
:0203C3000160D7
:0203C4000194A2
:0203C500016FC6
:0203C6000167CD
:0203C70001B182
:0203C80001AB87
:0203C9000176BB
:0203CA0001A789
:0203CB0001E847
:0203CC00019797
:0203CD0001BA73
:0203CE0001F636
:0203CF0001E249
:0203D00001CA60
:0203D100020127
:0203D200022CFB
:0203D30001F532
:0203D40002190C
:0203D5000254D0
:0203D6000228FB
:0203D70002150D
:0203D800027BA6
:0203D9000272AE
:0203DA00022BF4
:0203DB00028E90
:0203DC00029F7E
:0203DD000255C7
:0203DE00028893
:0203DF0002D04A
:0203E00002B762
:0203E100028C8C
:0203E200030A0C
:0203E300030510
:0203E40002A76E
:0203E50002DE36
:0203E600033CD6
:0203E70002EB27
:0203E80002F71A
:0203E900037D92
:0203EA000352BC
:0203EB00030904
:0203EC00037993
:0203ED00039D6E
:0203EE00032EDC
:0203EF00037495
:0203F000040CFB
:0203F100039572
:0203F200037B8B
:0203F30003F213
:0203F4000408FB
:0203F500036C97
:0203F6000408F9
:0203F700046F91
:0203F80003DF21
:0203F90003E619
:0203FA0004A25B
:0203FB000436C6
:0203FC0003D12B
:0203FD0004AB4F
:0203FE0004CA2F
:0203FF00041ADE
:00000001FF
